{
  "_format": "hh-sol-artifact-1",
  "contractName": "CrowdFund",
  "sourceName": "contracts/CrowdFund.sol",
  "abi": [
    {
      "inputs": [
        {
          "internalType": "address",
          "name": "_token",
          "type": "address"
        }
      ],
      "stateMutability": "payable",
      "type": "constructor"
    },
    {
      "anonymous": false,
      "inputs": [
        {
          "indexed": false,
          "internalType": "uint256",
          "name": "id",
          "type": "uint256"
        }
      ],
      "name": "Cancel",
      "type": "event"
    },
    {
      "anonymous": false,
      "inputs": [
        {
          "indexed": false,
          "internalType": "uint256",
          "name": "_id",
          "type": "uint256"
        }
      ],
      "name": "Claim",
      "type": "event"
    },
    {
      "anonymous": false,
      "inputs": [
        {
          "indexed": false,
          "internalType": "uint256",
          "name": "id",
          "type": "uint256"
        },
        {
          "indexed": true,
          "internalType": "address",
          "name": "creator",
          "type": "address"
        },
        {
          "indexed": false,
          "internalType": "uint256",
          "name": "goal",
          "type": "uint256"
        },
        {
          "indexed": false,
          "internalType": "uint32",
          "name": "startAt",
          "type": "uint32"
        },
        {
          "indexed": false,
          "internalType": "uint32",
          "name": "endAt",
          "type": "uint32"
        }
      ],
      "name": "Launch",
      "type": "event"
    },
    {
      "anonymous": false,
      "inputs": [
        {
          "indexed": true,
          "internalType": "uint256",
          "name": "id",
          "type": "uint256"
        },
        {
          "indexed": true,
          "internalType": "address",
          "name": "caller",
          "type": "address"
        },
        {
          "indexed": false,
          "internalType": "uint256",
          "name": "amount",
          "type": "uint256"
        }
      ],
      "name": "Pledge",
      "type": "event"
    },
    {
      "anonymous": false,
      "inputs": [
        {
          "indexed": true,
          "internalType": "uint256",
          "name": "id",
          "type": "uint256"
        },
        {
          "indexed": true,
          "internalType": "address",
          "name": "caller",
          "type": "address"
        },
        {
          "indexed": false,
          "internalType": "uint256",
          "name": "amount",
          "type": "uint256"
        }
      ],
      "name": "Refund",
      "type": "event"
    },
    {
      "anonymous": false,
      "inputs": [
        {
          "indexed": true,
          "internalType": "uint256",
          "name": "id",
          "type": "uint256"
        },
        {
          "indexed": true,
          "internalType": "address",
          "name": "caller",
          "type": "address"
        },
        {
          "indexed": false,
          "internalType": "uint256",
          "name": "amount",
          "type": "uint256"
        }
      ],
      "name": "Unpledge",
      "type": "event"
    },
    {
      "inputs": [
        {
          "internalType": "uint256",
          "name": "",
          "type": "uint256"
        }
      ],
      "name": "campaigns",
      "outputs": [
        {
          "internalType": "address",
          "name": "creator",
          "type": "address"
        },
        {
          "internalType": "uint256",
          "name": "goal",
          "type": "uint256"
        },
        {
          "internalType": "uint256",
          "name": "pledged",
          "type": "uint256"
        },
        {
          "internalType": "uint32",
          "name": "startAt",
          "type": "uint32"
        },
        {
          "internalType": "uint32",
          "name": "endAt",
          "type": "uint32"
        },
        {
          "internalType": "bool",
          "name": "claimed",
          "type": "bool"
        }
      ],
      "stateMutability": "view",
      "type": "function"
    },
    {
      "inputs": [
        {
          "internalType": "uint256",
          "name": "_id",
          "type": "uint256"
        }
      ],
      "name": "cancel",
      "outputs": [],
      "stateMutability": "nonpayable",
      "type": "function"
    },
    {
      "inputs": [
        {
          "internalType": "uint256",
          "name": "_id",
          "type": "uint256"
        }
      ],
      "name": "claim",
      "outputs": [],
      "stateMutability": "nonpayable",
      "type": "function"
    },
    {
      "inputs": [],
      "name": "count",
      "outputs": [
        {
          "internalType": "uint256",
          "name": "",
          "type": "uint256"
        }
      ],
      "stateMutability": "view",
      "type": "function"
    },
    {
      "inputs": [
        {
          "internalType": "uint256",
          "name": "_goal",
          "type": "uint256"
        },
        {
          "internalType": "uint32",
          "name": "_startAt",
          "type": "uint32"
        },
        {
          "internalType": "uint32",
          "name": "_endAt",
          "type": "uint32"
        }
      ],
      "name": "launch",
      "outputs": [],
      "stateMutability": "nonpayable",
      "type": "function"
    },
    {
      "inputs": [],
      "name": "owner",
      "outputs": [
        {
          "internalType": "address payable",
          "name": "",
          "type": "address"
        }
      ],
      "stateMutability": "view",
      "type": "function"
    },
    {
      "inputs": [
        {
          "internalType": "uint256",
          "name": "_id",
          "type": "uint256"
        },
        {
          "internalType": "uint256",
          "name": "_amount",
          "type": "uint256"
        }
      ],
      "name": "pledge",
      "outputs": [],
      "stateMutability": "payable",
      "type": "function"
    },
    {
      "inputs": [
        {
          "internalType": "uint256",
          "name": "",
          "type": "uint256"
        },
        {
          "internalType": "address",
          "name": "",
          "type": "address"
        }
      ],
      "name": "pledgedAmount",
      "outputs": [
        {
          "internalType": "uint256",
          "name": "",
          "type": "uint256"
        }
      ],
      "stateMutability": "view",
      "type": "function"
    },
    {
      "inputs": [
        {
          "internalType": "uint256",
          "name": "_id",
          "type": "uint256"
        }
      ],
      "name": "refund",
      "outputs": [],
      "stateMutability": "nonpayable",
      "type": "function"
    },
    {
      "inputs": [],
      "name": "token",
      "outputs": [
        {
          "internalType": "contract ERC20",
          "name": "",
          "type": "address"
        }
      ],
      "stateMutability": "view",
      "type": "function"
    },
    {
      "inputs": [
        {
          "internalType": "uint256",
          "name": "_id",
          "type": "uint256"
        },
        {
          "internalType": "uint256",
          "name": "_amount",
          "type": "uint256"
        }
      ],
      "name": "unpledge",
      "outputs": [],
      "stateMutability": "nonpayable",
      "type": "function"
    }
  ],
  "bytecode": "0x60a060405260405162001b7638038062001b7683398181016040528101906200002991906200010e565b8073ffffffffffffffffffffffffffffffffffffffff1660808173ffffffffffffffffffffffffffffffffffffffff1681525050336000806101000a81548173ffffffffffffffffffffffffffffffffffffffff021916908373ffffffffffffffffffffffffffffffffffffffff1602179055505062000140565b600080fd5b600073ffffffffffffffffffffffffffffffffffffffff82169050919050565b6000620000d682620000a9565b9050919050565b620000e881620000c9565b8114620000f457600080fd5b50565b6000815190506200010881620000dd565b92915050565b600060208284031215620001275762000126620000a4565b5b60006200013784828501620000f7565b91505092915050565b6080516119fe62000178600039600081816104cb0152818161096f01528181610dbe01528181610efa015261101401526119fe6000f3fe60806040526004361061009c5760003560e01c806340e58ee51161006457806340e58ee514610189578063711853ab146101b25780638da5cb5b146101db578063aa4fb63a14610206578063fc0c546a14610243578063fde327be1461026e5761009c565b806306661abd146100a1578063141961bc146100cc578063278ecde11461010e5780632c63f14614610137578063379607f514610160575b600080fd5b3480156100ad57600080fd5b506100b661028a565b6040516100c39190611120565b60405180910390f35b3480156100d857600080fd5b506100f360048036038101906100ee919061116c565b610290565b60405161010596959493929190611214565b60405180910390f35b34801561011a57600080fd5b506101356004803603810190610130919061116c565b610319565b005b34801561014357600080fd5b5061015e600480360381019061015991906112a1565b6105bc565b005b34801561016c57600080fd5b506101876004803603810190610182919061116c565b61080a565b005b34801561019557600080fd5b506101b060048036038101906101ab919061116c565b610a4b565b005b3480156101be57600080fd5b506101d960048036038101906101d491906112f4565b610cc6565b005b3480156101e757600080fd5b506101f0610eaf565b6040516101fd9190611355565b60405180910390f35b34801561021257600080fd5b5061022d6004803603810190610228919061139c565b610ed3565b60405161023a9190611120565b60405180910390f35b34801561024f57600080fd5b50610258610ef8565b604051610265919061143b565b60405180910390f35b610288600480360381019061028391906112f4565b610f1c565b005b60015481565b60026020528060005260406000206000915090508060000160009054906101000a900473ffffffffffffffffffffffffffffffffffffffff16908060010154908060020154908060030160009054906101000a900463ffffffff16908060030160049054906101000a900463ffffffff16908060030160089054906101000a900460ff16905086565b60006002600083815260200190815260200160002090508060000160009054906101000a900473ffffffffffffffffffffffffffffffffffffffff1673ffffffffffffffffffffffffffffffffffffffff163373ffffffffffffffffffffffffffffffffffffffff16146103c2576040517f08c379a00000000000000000000000000000000000000000000000000000000081526004016103b9906114b3565b60405180910390fd5b8060030160049054906101000a900463ffffffff1663ffffffff16421161041e576040517f08c379a00000000000000000000000000000000000000000000000000000000081526004016104159061151f565b60405180910390fd5b60006003600084815260200190815260200160002060003373ffffffffffffffffffffffffffffffffffffffff1673ffffffffffffffffffffffffffffffffffffffff16815260200190815260200160002054905060006003600085815260200190815260200160002060003373ffffffffffffffffffffffffffffffffffffffff1673ffffffffffffffffffffffffffffffffffffffff168152602001908152602001600020819055507f000000000000000000000000000000000000000000000000000000000000000073ffffffffffffffffffffffffffffffffffffffff1663a9059cbb33836040518363ffffffff1660e01b815260040161052492919061153f565b6020604051808303816000875af1158015610543573d6000803e3d6000fd5b505050506040513d601f19601f820116820180604052508101906105679190611594565b503373ffffffffffffffffffffffffffffffffffffffff16837f21e12a7cad0da5928167e1084ea4d5fdf8d9af66657a2543a9ac76a0ca081477836040516105af9190611120565b60405180910390a3505050565b8163ffffffff168163ffffffff16101561060b576040517f08c379a00000000000000000000000000000000000000000000000000000000081526004016106029061160d565b60405180910390fd5b6276a7004261061a919061165c565b8163ffffffff161115610662576040517f08c379a0000000000000000000000000000000000000000000000000000000008152600401610659906116dc565b60405180910390fd5b6001806000828254610674919061165c565b925050819055506040518060c001604052803373ffffffffffffffffffffffffffffffffffffffff168152602001848152602001600081526020018363ffffffff1681526020018263ffffffff1681526020016000151581525060026000600154815260200190815260200160002060008201518160000160006101000a81548173ffffffffffffffffffffffffffffffffffffffff021916908373ffffffffffffffffffffffffffffffffffffffff160217905550602082015181600101556040820151816002015560608201518160030160006101000a81548163ffffffff021916908363ffffffff16021790555060808201518160030160046101000a81548163ffffffff021916908363ffffffff16021790555060a08201518160030160086101000a81548160ff0219169083151502179055509050503373ffffffffffffffffffffffffffffffffffffffff167f0601cd0d650b473037e838a2696d41e654433d065b3f56b28d1d3302e44a304f6001548585856040516107fd94939291906116fc565b60405180910390a2505050565b60006002600083815260200190815260200160002090508060000160009054906101000a900473ffffffffffffffffffffffffffffffffffffffff1673ffffffffffffffffffffffffffffffffffffffff163373ffffffffffffffffffffffffffffffffffffffff16146108b3576040517f08c379a00000000000000000000000000000000000000000000000000000000081526004016108aa906114b3565b60405180910390fd5b8060010154816002015410156108fe576040517f08c379a00000000000000000000000000000000000000000000000000000000081526004016108f59061178d565b60405180910390fd5b8060030160089054906101000a900460ff1615610950576040517f08c379a0000000000000000000000000000000000000000000000000000000008152600401610947906117f9565b60405180910390fd5b60018160030160086101000a81548160ff0219169083151502179055507f000000000000000000000000000000000000000000000000000000000000000073ffffffffffffffffffffffffffffffffffffffff1663a9059cbb3383600201546040518363ffffffff1660e01b81526004016109cc92919061153f565b6020604051808303816000875af11580156109eb573d6000803e3d6000fd5b505050506040513d601f19601f82011682018060405250810190610a0f9190611594565b507f7bb2b3c10797baccb6f8c4791f1edd6ca2f0d028ee0eda64b01a9a57e3a653f782604051610a3f9190611120565b60405180910390a15050565b6000600260008381526020019081526020016000206040518060c00160405290816000820160009054906101000a900473ffffffffffffffffffffffffffffffffffffffff1673ffffffffffffffffffffffffffffffffffffffff1673ffffffffffffffffffffffffffffffffffffffff16815260200160018201548152602001600282015481526020016003820160009054906101000a900463ffffffff1663ffffffff1663ffffffff1681526020016003820160049054906101000a900463ffffffff1663ffffffff1663ffffffff1681526020016003820160089054906101000a900460ff1615151515815250509050806000015173ffffffffffffffffffffffffffffffffffffffff163373ffffffffffffffffffffffffffffffffffffffff1614610bb0576040517f08c379a0000000000000000000000000000000000000000000000000000000008152600401610ba7906114b3565b60405180910390fd5b806060015163ffffffff164210610bfc576040517f08c379a0000000000000000000000000000000000000000000000000000000008152600401610bf390611865565b60405180910390fd5b60026000838152602001908152602001600020600080820160006101000a81549073ffffffffffffffffffffffffffffffffffffffff0219169055600182016000905560028201600090556003820160006101000a81549063ffffffff02191690556003820160046101000a81549063ffffffff02191690556003820160086101000a81549060ff021916905550507f8bf30e7ff26833413be5f69e1d373744864d600b664204b4a2f9844a8eedb9ed82604051610cba9190611120565b60405180910390a15050565b60006002600084815260200190815260200160002090508060030160049054906101000a900463ffffffff1663ffffffff16421115610d3a576040517f08c379a0000000000000000000000000000000000000000000000000000000008152600401610d31906118d1565b60405180910390fd5b81816002016000828254610d4e91906118f1565b92505081905550816003600085815260200190815260200160002060003373ffffffffffffffffffffffffffffffffffffffff1673ffffffffffffffffffffffffffffffffffffffff1681526020019081526020016000206000828254610db591906118f1565b925050819055507f000000000000000000000000000000000000000000000000000000000000000073ffffffffffffffffffffffffffffffffffffffff1663a9059cbb33846040518363ffffffff1660e01b8152600401610e1792919061153f565b6020604051808303816000875af1158015610e36573d6000803e3d6000fd5b505050506040513d601f19601f82011682018060405250810190610e5a9190611594565b503373ffffffffffffffffffffffffffffffffffffffff16837f2eeeab891b26a214d1b25749f88a406bdea852bd8c9bfda977e0ef8114c180ba84604051610ea29190611120565b60405180910390a3505050565b60008054906101000a900473ffffffffffffffffffffffffffffffffffffffff1681565b6003602052816000526040600020602052806000526040600020600091509150505481565b7f000000000000000000000000000000000000000000000000000000000000000081565b60006002600084815260200190815260200160002090508060030160009054906101000a900463ffffffff1663ffffffff16421015610f90576040517f08c379a0000000000000000000000000000000000000000000000000000000008152600401610f8790611971565b60405180910390fd5b81816002016000828254610fa4919061165c565b92505081905550816003600085815260200190815260200160002060003373ffffffffffffffffffffffffffffffffffffffff1673ffffffffffffffffffffffffffffffffffffffff168152602001908152602001600020600082825461100b919061165c565b925050819055507f000000000000000000000000000000000000000000000000000000000000000073ffffffffffffffffffffffffffffffffffffffff166323b872dd3330856040518463ffffffff1660e01b815260040161106f93929190611991565b6020604051808303816000875af115801561108e573d6000803e3d6000fd5b505050506040513d601f19601f820116820180604052508101906110b29190611594565b503373ffffffffffffffffffffffffffffffffffffffff16837f06bdb975df800a73232998e71ed585d536222f1dfeaa622d7f62a23ada686c82846040516110fa9190611120565b60405180910390a3505050565b6000819050919050565b61111a81611107565b82525050565b60006020820190506111356000830184611111565b92915050565b600080fd5b61114981611107565b811461115457600080fd5b50565b60008135905061116681611140565b92915050565b6000602082840312156111825761118161113b565b5b600061119084828501611157565b91505092915050565b600073ffffffffffffffffffffffffffffffffffffffff82169050919050565b60006111c482611199565b9050919050565b6111d4816111b9565b82525050565b600063ffffffff82169050919050565b6111f3816111da565b82525050565b60008115159050919050565b61120e816111f9565b82525050565b600060c08201905061122960008301896111cb565b6112366020830188611111565b6112436040830187611111565b61125060608301866111ea565b61125d60808301856111ea565b61126a60a0830184611205565b979650505050505050565b61127e816111da565b811461128957600080fd5b50565b60008135905061129b81611275565b92915050565b6000806000606084860312156112ba576112b961113b565b5b60006112c886828701611157565b93505060206112d98682870161128c565b92505060406112ea8682870161128c565b9150509250925092565b6000806040838503121561130b5761130a61113b565b5b600061131985828601611157565b925050602061132a85828601611157565b9150509250929050565b600061133f82611199565b9050919050565b61134f81611334565b82525050565b600060208201905061136a6000830184611346565b92915050565b611379816111b9565b811461138457600080fd5b50565b60008135905061139681611370565b92915050565b600080604083850312156113b3576113b261113b565b5b60006113c185828601611157565b92505060206113d285828601611387565b9150509250929050565b6000819050919050565b60006114016113fc6113f784611199565b6113dc565b611199565b9050919050565b6000611413826113e6565b9050919050565b600061142582611408565b9050919050565b6114358161141a565b82525050565b6000602082019050611450600083018461142c565b92915050565b600082825260208201905092915050565b7f6e6f742063726561746f72000000000000000000000000000000000000000000600082015250565b600061149d600b83611456565b91506114a882611467565b602082019050919050565b600060208201905081810360008301526114cc81611490565b9050919050565b7f6e6f7420656e6465640000000000000000000000000000000000000000000000600082015250565b6000611509600983611456565b9150611514826114d3565b602082019050919050565b60006020820190508181036000830152611538816114fc565b9050919050565b600060408201905061155460008301856111cb565b6115616020830184611111565b9392505050565b611571816111f9565b811461157c57600080fd5b50565b60008151905061158e81611568565b92915050565b6000602082840312156115aa576115a961113b565b5b60006115b88482850161157f565b91505092915050565b7f656e64206174203c207374617274206174000000000000000000000000000000600082015250565b60006115f7601183611456565b9150611602826115c1565b602082019050919050565b60006020820190508181036000830152611626816115ea565b9050919050565b7f4e487b7100000000000000000000000000000000000000000000000000000000600052601160045260246000fd5b600061166782611107565b915061167283611107565b925082820190508082111561168a5761168961162d565b5b92915050565b7f656e64206174203e206d6178206475726174696f6e0000000000000000000000600082015250565b60006116c6601583611456565b91506116d182611690565b602082019050919050565b600060208201905081810360008301526116f5816116b9565b9050919050565b60006080820190506117116000830187611111565b61171e6020830186611111565b61172b60408301856111ea565b61173860608301846111ea565b95945050505050565b7f706c6564676564203c20676f616c000000000000000000000000000000000000600082015250565b6000611777600e83611456565b915061178282611741565b602082019050919050565b600060208201905081810360008301526117a68161176a565b9050919050565b7f636c61696d656400000000000000000000000000000000000000000000000000600082015250565b60006117e3600783611456565b91506117ee826117ad565b602082019050919050565b60006020820190508181036000830152611812816117d6565b9050919050565b7f7374617274656400000000000000000000000000000000000000000000000000600082015250565b600061184f600783611456565b915061185a82611819565b602082019050919050565b6000602082019050818103600083015261187e81611842565b9050919050565b7f656e646564000000000000000000000000000000000000000000000000000000600082015250565b60006118bb600583611456565b91506118c682611885565b602082019050919050565b600060208201905081810360008301526118ea816118ae565b9050919050565b60006118fc82611107565b915061190783611107565b925082820390508181111561191f5761191e61162d565b5b92915050565b7f6e6f742073746172746564000000000000000000000000000000000000000000600082015250565b600061195b600b83611456565b915061196682611925565b602082019050919050565b6000602082019050818103600083015261198a8161194e565b9050919050565b60006060820190506119a660008301866111cb565b6119b360208301856111cb565b6119c06040830184611111565b94935050505056fea2646970667358221220589ad2fd50ae6978085a7a0602bc5f56d6c357a2c3de8e7dd996f75f39a67a0c64736f6c63430008110033",
  "linkReferences": {},
  "deployedLinkReferences": {}
}